:100000000C942A000C9417060C9447000C9447009B
:100010000C9447000C9447000C9447000C94470044
:100020000C9447000C9447000C9447000C94470034
:100030000C9447000C944B060C9447000C9447001A
:100040000C9447000C9447000C9447000C94470014
:100050000C94470011241FBECFE5D8E0DEBFCDBF12
:1000600010E0A0E6B0E0E8EBF0E102C005900D92F0
:10007000A439B107D9F720E0A4E9B0E001C01D928E
:10008000A639B207E1F70E94DC030C945A080C94DD
:1000900000003E9A3F98379A309A319A329A0895E2
:1000A000369A86B184B125B190E0922B089580EF05
:1000B00084BB8FE083BB08958FEE85BB989B26C0E1
:1000C000999B26C09A9B26C09B9B26C08FED85BB23
:1000D000989B24C0999B24C09A9B24C09B9B24C0BE
:1000E0008FEB85BB989B22C0999B22C09A9B22C014
:1000F0009B9B22C08FE785BB989B20C0999B20C00B
:100100009A9B20C09B9B20C084E608958FE20895AF
:100110008DE3089580E308958FE608958DE20895B4
:1001200089E3089588E3089587E308958BE20895AD
:1001300086E3089585E3089584E308958AE20895A7
:1001400083E3089582E3089581E30895C298C19AF4
:1001500024E030E090E0A1E0B0E0AC01BC01022E70
:1001600002C0759567950A94E2F760FD0DC07BB3F8
:10017000FD01022E02C0EE0FFF1F0A94E2F76E2F60
:10018000609567236BBB0AC0EBB3BD01022E02C0B2
:10019000660F771F0A94E2F76E2B6BBB2F5F3F4F02
:1001A00028303105D1F6C39A8FEC97E00197F1F72B
:1001B00000C00000C3988FEC97E00197F1F700C0F2
:1001C000000084E090E0E1E0F0E09C01245031097F
:1001D000BA0102C0759567952A95E2F760FD0DC0DA
:1001E0003BB3BF01082E02C0660F771F0A94E2F7E7
:1001F000262F209523232BBB0AC06BB39F01082E0B
:1002000002C0220F331F0A94E2F7262B2BBB019664
:1002100088309105D1F6C39A8FEC97E00197F1F7FA
:1002200000C00000C3988FEC97E00197F1F700C081
:1002300000000895C298C19824E030E090E0A1E069
:10024000B0E0AC01BC01022E02C0759567950A941E
:10025000E2F760FD0DC07BB3FD01022E02C0EE0F80
:10026000FF1F0A94E2F76E2F609567236BBB0AC0ED
:10027000EBB3BD01022E02C0660F771F0A94E2F7AE
:100280006E2B6BBB2F5F3F4F28303105D1F6C39AE1
:100290008FEC97E00197F1F700C00000C3988FEC56
:1002A00097E00197F1F700C0000084E090E0E1E002
:1002B000F0E09C0124503109BA0102C075956795A0
:1002C0002A95E2F760FD0DC03BB3BF01082E02C0C6
:1002D000660F771F0A94E2F7262F209523232BBB66
:1002E0000AC06BB39F01082E02C0220F331F0A946D
:1002F000E2F7262B2BBB019688309105D1F6C39AE5
:100300008FEC97E00197F1F700C00000C3988FECE5
:1003100097E00197F1F700C0000008958AB3806F5D
:100320008ABB87B38E6087BBC29A82E00E941A01A3
:1003300088E20E941A0181E00E941A018CE00E946A
:100340001A0186E00E941A0180E80E941A018FE3D8
:100350009CE90197F1F700C000000895CF93DF9367
:10036000EC018881882331F021960E94A6008991B2
:100370008111FBCFDF91CF910895C19A88230CF0B2
:10038000DF98DF9A86FD02C0DE9801C0DE9A85FD07
:1003900002C0DD9801C0DD9A84FD02C0DC9801C076
:1003A000DC9AC39AEFECF7E03197F1F700C0000058
:1003B000C398EFECF7E03197F1F700C0000080FD43
:1003C00002C0DC9801C0DC9A81FD02C0DD9801C04A
:1003D000DD9A82FD02C0DE9801C0DE9A83FFDF98BD
:1003E000DF9AC39A8FEC97E00197F1F700C0000005
:1003F000C398EFECF7E03197F1F700C000000895E3
:100400000F931F93CF93DF93EC018A30910520F473
:10041000805D0E94BD01DDC08436910510F59C0110
:10042000ADECBCEC0E944B088C0116950795169517
:1004300007951695079580E3800F0E94BD01C801BE
:10044000880F991F000F111F000F111F000F111FA0
:10045000080F191FCE01801B910B805D0E94BD010A
:10046000B8C0C83E83E0D80708F040C0AE0156953A
:100470004795569547959A01ABE7B4E10E944B0822
:100480008C011695079524E6209FC001219F900DB1
:1004900011248E01081B190B9A010E944B08969596
:1004A0008795805D0E94BD019801ADECBCEC0E9477
:1004B0004B08EC01D695C795D695C795D695C795A7
:1004C0008C2F805D0E94BD01CE01880F991FCC0F3B
:1004D000DD1FCC0FDD1FCC0FDD1FC80FD91FC801DA
:1004E0008C1B9D0B805D0E94BD0173C0C03187E2F3
:1004F000D80708F06EC0FE01F695E795F695E795EA
:10050000F695E7959F01A5ECB0E20E944B08AC017F
:10051000529542954F7045275F70452728EE33E08E
:10052000429FC001439F900D529F900D1124AE0138
:10053000481B590BEA01D695C795D695C7959E01DC
:10054000ABE7B4E10E944B088C011695079524E6B1
:10055000209FC001219F900D11248A01081B190BB7
:100560009F01A5ECB0E20E944B08929582958F7096
:1005700089279F708927805D0E94BD019E01ABE79E
:10058000B4E10E944B0896958795805D0E94BD015D
:100590009801ADECBCEC0E944B08EC01D695C795D8
:1005A000D695C795D695C7958C2F805D0E94BD01C5
:1005B000CE01880F991FCC0FDD1FCC0FDD1FCC0F94
:1005C000DD1FC80FD91FC8018C1B9D0B805D0E94C9
:1005D000BD01DF91CF911F910F9108950F931F934C
:1005E000CF93DF93EC018A30910520F4805D0E9467
:1005F000BD01DDC08436910510F59C01ADECBCEC6D
:100600000E944B088C01169507951695079516952F
:10061000079580E3800F0E94BD01C801880F991FD4
:10062000000F111F000F111F000F111F080F191FBE
:10063000CE01801B910B805D0E94BD01B8C0C83EF9
:1006400083E0D80708F040C0AE015695479556950F
:1006500047959A01ABE7B4E10E944B088C011695CF
:10066000079524E6209FC001219F900D11248E0143
:10067000081B190B9A010E944B0896958795805D7F
:100680000E94BD019801ADECBCEC0E944B08EC014E
:10069000D695C795D695C795D695C7958C2F805D6D
:1006A0000E94BD01CE01880F991FCC0FDD1FCC0F1A
:1006B000DD1FCC0FDD1FC80FD91FC8018C1B9D0B80
:1006C000805D0E94BD0173C0C03187E2D80708F089
:1006D0006EC0FE01F695E795F695E795F695E795D8
:1006E0009F01A5ECB0E20E944B08AC0152954295E7
:1006F0004F7045275F70452728EE33E0429FC001C9
:10070000439F900D529F900D1124AE01481B590B31
:10071000EA01D695C795D695C7959E01ABE7B4E19A
:100720000E944B088C011695079524E6209FC00176
:10073000219F900D11248A01081B190B9F01A5EC24
:10074000B0E20E944B08929582958F7089279F7026
:100750008927805D0E94BD019E01ABE7B4E10E9444
:100760004B0896958795805D0E94BD019801ADEC80
:10077000BCEC0E944B08EC01D695C795D695C79561
:10078000D695C7958C2F805D0E94BD01CE01880F44
:10079000991FCC0FDD1FCC0FDD1FCC0FDD1FC80F45
:1007A000D91FC8018C1B9D0B805D0E94BD01DF918C
:1007B000CF911F910F9108954F925F926F927F9208
:1007C0008F929F92AF92BF92CF92DF92EF92FF9261
:1007D0000F931F93CF93DF9300D01F92CDB7DEB757
:1007E0000E948E010E949C068BB780648BBF85B7E8
:1007F000816085BF85B7826085BF78945F9A579A7C
:100800008B988C988D9880919400813009F046C027
:100810000E941A010E9449000E94710685E80E9408
:100820001A0180E690E00E94AE0183EC0E941A015A
:1008300087E690E00E94AE0180E00E94500084367E
:10084000910520F48AE00E94890623C080E00E947E
:1008500050008436910550F080E00E9450008C32A8
:10086000914020F48EE10E94890613C080E00E942E
:1008700050008C32914050F080E00E94500088354A
:10088000924020F486E40E94890603C084E60E9418
:10089000890680919400813079F2B2CF80919400E2
:1008A000823001F581E00E941A0185E80E941A0158
:1008B00082E790E00E94AE0182EC0E941A0189E773
:1008C00090E00E94AE018B9A80E00E945000853F2C
:1008D000914010F0939A01C09398809194008230D7
:1008E00099F38ECF80919400833009F089CF1092D4
:1008F00095000E94570081E00E941A0185E80E943D
:100900001A0186E890E00E94AE0180EC0E941A0174
:10091000B12C0E945C00A82E8FE19EE40197F1F7B4
:1009200000C00000989BFECF999BFCCF9A9BFACF0A
:100930009B9BF8CF9FEF20E732E091502040304062
:10094000E1F700C0000084E6A81609F434C19FE670
:10095000A91609F43BC1B3948A2D0E94BD012FEF63
:1009600031EE84E0215030408040E1F700C00000CB
:1009700091E0B91207C02A2D30E0205331093B83A2
:100980002A8319C132E0B31207C08A2D90E07C019E
:1009900020E3E21AF1080FC133E0B31222C08DE266
:1009A000A81699F08A1538F09AE2A91689F02BE278
:1009B000A21641F000C13FE2A31669F08DE3A8162C
:1009C00069F0F9C09BE29983F6C02DE22983F3C058
:1009D0003AE23983F0C08FE28983EDC09DE39983C9
:1009E000EAC024E0B21206C08A2D90E08C010053C8
:1009F0001109E1C035E0B31207C08A2D90E06C0107
:100A000020E3C21AD108D7C036E0B312D4C08DE3B8
:100A1000A812CAC099819B32D1F480EC0E941A01BD
:100A20008A819B81800F911F9C01220F331F880FA9
:100A3000991F880F991F880F991F820F931F970185
:100A40002C0D3D1D820F931F0E940002B4C029810E
:100A50002D3299F580EC0E941A018A819B81880FC2
:100A6000991F880F991F880F991F2A813B81220F98
:100A7000331F820F931F8E0D9F1D9801220F331F6E
:100A8000220F331F220F331FA801440F551F240FBD
:100A9000351F2C0D3D1D8217930728F0821B930BE9
:100AA0000E94000288C04901881A990A8DE20E94BA
:100AB000BD01C4010E9400027EC039813A3261F555
:100AC00080EC0E941A018A819B81880F991F880FF0
:100AD000991F880F991F4A815B81440F551F480F4A
:100AE000591F4E0D5F1D9801220F331F220F331F18
:100AF000220F331FC801880F991F820F931F8C0D7F
:100B00009D1D9C01429FC001439F900D529F900DDF
:100B100011240E9400024FC039813F32E9F580EC78
:100B20000E941A018A819B81880F991F880F991F43
:100B3000880F991F6A817B81660F771F680F791F65
:100B40006E0D7F1D80E090E00E9450072B013C015C
:100B5000C801880F991F880F991F880F991FB80126
:100B6000660F771F680F791F6C0D7D1D80E090E088
:100B70000E9450079B01AC01C301B2010E94AF0665
:100B800020E030E048EC52E40E94DE070E9421079A
:100B9000CB010E94EE020FC080EC0E941A018DE88A
:100BA00090E00E94AE0107C080EC0E941A018DE81F
:100BB00090E00E94AE0180919400833009F4A9CEA8
:100BC00080919400833009F41BCE1BC08FE60E94F5
:100BD000BD018FEF91EE24E0815090402040E1F77D
:100BE00000C0000081E00E941A0185E80E941A01FD
:100BF00086E890E00E94AE0180EC0E941A01B12CC0
:100C0000DACF80E090E00F900F900F90DF91CF91BE
:100C10001F910F91FF90EF90DF90CF90BF90AF901A
:100C20009F908F907F906F905F904F9008951F924C
:100C30000F920FB60F9211242F933F934F935F9310
:100C40006F937F938F939F93AF93BF93EF93FF9394
:100C50002FEF80E792E0215080409040E1F700C004
:100C60000000809195008F5F8093950080919500A2
:100C70000E94A706FF91EF91BF91AF919F918F9135
:100C80007F916F915F914F913F912F910F900FBE88
:100C90000F901F9018951F920F920FB60F9211246C
:100CA0002F933F934F935F936F937F938F939F9374
:100CB000AF93BF93EF93FF930E94AB068093940092
:100CC000FF91EF91BF91AF919F918F917F916F9124
:100CD0005F914F913F912F910F900FBE0F901F90FA
:100CE00018958C9A8D9A8FB580688FBD8FB580626C
:100CF0008FBD8FB581608FBD8FB582608FBD8EB582
:100D000088608EBD8EB58F7E8EBD8EB581608EBDA6
:100D10000895682F70E080E090E00E94520724E17F
:100D20003EEA43E251E40E94DE070E9421077BBDB8
:100D30006ABD79BD68BD0895549A539A80B58260A2
:100D400080BD80B5846080BD83E389B908955D9BD3
:100D5000FECF8CB908955F9BFECF8CB108950E94A1
:100D6000C3060C94A4070E949D0758F00E949607A2
:100D700040F029F45F3F29F00C948D0751110C9439
:100D8000D8070C9493070E94B50768F39923B1F331
:100D9000552391F3951B550BBB27AA2762177307A1
:100DA000840738F09F5F5F4F220F331F441FAA1F35
:100DB000A9F335D00E2E3AF0E0E832D091505040F1
:100DC000E695001CCAF72BD0FE2F29D0660F771F9F
:100DD000881FBB1F261737074807AB07B0E809F085
:100DE000BB0B802DBF01FF2793585F4F3AF09E3F0A
:100DF000510578F00C948D070C94D8075F3FE4F30D
:100E0000983ED4F3869577956795B795F7959F5F4C
:100E1000C9F7880F911D9695879597F90895E1E098
:100E2000660F771F881FBB1F621773078407BA07F7
:100E300020F0621B730B840BBA0BEE1F88F7E09552
:100E400008950E94BD0788F09F5798F0B92F992701
:100E5000B751B0F0E1F0660F771F881F991F1AF0A5
:100E6000BA95C9F714C0B13091F00E94D707B1E02C
:100E700008950C94D707672F782F8827B85F39F02B
:100E8000B93FCCF3869577956795B395D9F73EF43E
:100E900090958095709561957F4F8F4F9F4F0895E6
:100EA000E89409C097FB3EF4909580957095619504
:100EB0007F4F8F4F9F4F9923A9F0F92F96E9BB27BA
:100EC0009395F695879577956795B795F111F8CF36
:100ED000FAF4BB0F11F460FF1BC06F5F7F4F8F4FA1
:100EE0009F4F16C0882311F096E911C0772321F097
:100EF0009EE8872F762F05C0662371F096E8862F2F
:100F000070E060E02AF09A95660F771F881FDAF785
:100F1000880F9695879597F9089597F99F6780E8C8
:100F200070E060E008959FEF80EC089500240A943B
:100F30001616170618060906089500240A941216B4
:100F40001306140605060895092E0394000C11F4E7
:100F5000882352F0BB0F40F4BF2B11F460FF04C094
:100F60006F5F7F4F8F4F9F4F089557FD9058440FED
:100F7000551F59F05F3F71F04795880F97FB991FF8
:100F800061F09F3F79F087950895121613061406B5
:100F9000551FF2CF4695F1DF08C016161706180642
:100FA000991FF1CF86957105610508940895E8941D
:100FB000BB2766277727CB0197F908950E94F10791
:100FC0000C94A4070E94960738F00E949D0720F019
:100FD000952311F00C948D070C94930711240C9415
:100FE000D8070E94B50770F3959FC1F3950F50E0A5
:100FF000551F629FF001729FBB27F00DB11D639FCB
:10100000AA27F00DB11DAA1F649F6627B00DA11D70
:10101000661F829F2227B00DA11D621F739FB00D16
:10102000A11D621F839FA00D611D221F749F332786
:10103000A00D611D231F849F600D211D822F762F1F
:101040006A2F11249F5750409AF0F1F088234AF0FC
:10105000EE0FFF1FBB1F661F771F881F9150504068
:10106000A9F79E3F510580F00C948D070C94D8078A
:101070005F3FE4F3983ED4F3869577956795B795EF
:10108000F795E7959F5FC1F7FE2B880F911D969509
:10109000879597F90895A29FB001B39FC001A39FC0
:1010A000700D811D1124911DB29F700D811D1124A1
:0810B000911D0895F894FFCF93
:1010B8006D6F64652031004669726520416C61720C
:1010C8006D006D6F64652032004C69676874205349
:1010D800656E736F72006D6F6465203300657272A0
:0410E8006F72000023
:00000001FF
